{
  "contractName": "lendingRequests",
  "abi": [
    {
      "constant": true,
      "inputs": [],
      "name": "p",
      "outputs": [
        {
          "name": "name",
          "type": "string"
        },
        {
          "name": "addres",
          "type": "string"
        },
        {
          "name": "aadhar",
          "type": "uint256"
        },
        {
          "name": "pan",
          "type": "uint256"
        },
        {
          "name": "Blockaddr",
          "type": "address"
        }
      ],
      "payable": false,
      "stateMutability": "view",
      "type": "function"
    },
    {
      "constant": true,
      "inputs": [
        {
          "name": "",
          "type": "uint256"
        }
      ],
      "name": "registeredParticipants",
      "outputs": [
        {
          "name": "name",
          "type": "string"
        },
        {
          "name": "addres",
          "type": "string"
        },
        {
          "name": "aadhar",
          "type": "uint256"
        },
        {
          "name": "pan",
          "type": "uint256"
        },
        {
          "name": "Blockaddr",
          "type": "address"
        }
      ],
      "payable": false,
      "stateMutability": "view",
      "type": "function"
    },
    {
      "inputs": [],
      "payable": false,
      "stateMutability": "nonpayable",
      "type": "constructor"
    },
    {
      "constant": false,
      "inputs": [
        {
          "name": "name",
          "type": "string"
        },
        {
          "name": "addres",
          "type": "string"
        },
        {
          "name": "aadhar",
          "type": "uint256"
        },
        {
          "name": "pan",
          "type": "uint256"
        }
      ],
      "name": "addLender",
      "outputs": [],
      "payable": false,
      "stateMutability": "nonpayable",
      "type": "function"
    },
    {
      "constant": false,
      "inputs": [
        {
          "name": "name",
          "type": "uint256"
        }
      ],
      "name": "DetailsLenderGovt",
      "outputs": [],
      "payable": false,
      "stateMutability": "nonpayable",
      "type": "function"
    },
    {
      "constant": false,
      "inputs": [
        {
          "name": "adr",
          "type": "address"
        }
      ],
      "name": "DetailsLenderCredit",
      "outputs": [],
      "payable": false,
      "stateMutability": "nonpayable",
      "type": "function"
    },
    {
      "constant": false,
      "inputs": [
        {
          "name": "adr",
          "type": "address"
        }
      ],
      "name": "DetailstoBank",
      "outputs": [],
      "payable": false,
      "stateMutability": "nonpayable",
      "type": "function"
    },
    {
      "constant": false,
      "inputs": [
        {
          "name": "adr",
          "type": "address"
        }
      ],
      "name": "GrantStatusforBank",
      "outputs": [],
      "payable": false,
      "stateMutability": "nonpayable",
      "type": "function"
    },
    {
      "constant": false,
      "inputs": [
        {
          "name": "adr",
          "type": "address"
        }
      ],
      "name": "CreditRate",
      "outputs": [],
      "payable": false,
      "stateMutability": "nonpayable",
      "type": "function"
    },
    {
      "constant": false,
      "inputs": [
        {
          "name": "adr",
          "type": "address"
        }
      ],
      "name": "ValidGovtId",
      "outputs": [],
      "payable": false,
      "stateMutability": "nonpayable",
      "type": "function"
    },
    {
      "constant": false,
      "inputs": [
        {
          "name": "adr",
          "type": "address"
        }
      ],
      "name": "GrantStatusCheck",
      "outputs": [],
      "payable": false,
      "stateMutability": "nonpayable",
      "type": "function"
    }
  ],
  "bytecode": "0x608060405234801561001057600080fd5b50610b0b806100206000396000f3006080604052600436106100a4576000357c0100000000000000000000000000000000000000000000000000000000900463ffffffff1680631410b15f146100a9578063214e08da146100ec578063487c8b491461012f5780634d5b67ab146101f25780639ae8886a14610235578063bf9fb17914610372578063ce917b6f146104c5578063cf23262914610508578063d6d56e551461054b578063fb8f54fe1461058e575b600080fd5b3480156100b557600080fd5b506100ea600480360381019080803573ffffffffffffffffffffffffffffffffffffffff1690602001909291905050506105bb565b005b3480156100f857600080fd5b5061012d600480360381019080803573ffffffffffffffffffffffffffffffffffffffff1690602001909291905050506105be565b005b34801561013b57600080fd5b506101f0600480360381019080803590602001908201803590602001908080601f0160208091040260200160405190810160405280939291908181526020018383808284378201915050505050509192919290803590602001908201803590602001908080601f016020809104026020016040519081016040528093929190818152602001838380828437820191505050505050919291929080359060200190929190803590602001909291905050506105c1565b005b3480156101fe57600080fd5b50610233600480360381019080803573ffffffffffffffffffffffffffffffffffffffff1690602001909291905050506106d6565b005b34801561024157600080fd5b5061024a6106d9565b6040518080602001806020018681526020018581526020018473ffffffffffffffffffffffffffffffffffffffff1673ffffffffffffffffffffffffffffffffffffffff168152602001838103835288818151815260200191508051906020019080838360005b838110156102cc5780820151818401526020810190506102b1565b50505050905090810190601f1680156102f95780820380516001836020036101000a031916815260200191505b50838103825287818151815260200191508051906020019080838360005b83811015610332578082015181840152602081019050610317565b50505050905090810190601f16801561035f5780820380516001836020036101000a031916815260200191505b5097505050505050505060405180910390f35b34801561037e57600080fd5b5061039d6004803603810190808035906020019092919050505061084d565b6040518080602001806020018681526020018581526020018473ffffffffffffffffffffffffffffffffffffffff1673ffffffffffffffffffffffffffffffffffffffff168152602001838103835288818151815260200191508051906020019080838360005b8381101561041f578082015181840152602081019050610404565b50505050905090810190601f16801561044c5780820380516001836020036101000a031916815260200191505b50838103825287818151815260200191508051906020019080838360005b8381101561048557808201518184015260208101905061046a565b50505050905090810190601f1680156104b25780820380516001836020036101000a031916815260200191505b5097505050505050505060405180910390f35b3480156104d157600080fd5b50610506600480360381019080803573ffffffffffffffffffffffffffffffffffffffff1690602001909291905050506109e2565b005b34801561051457600080fd5b50610549600480360381019080803573ffffffffffffffffffffffffffffffffffffffff1690602001909291905050506109e5565b005b34801561055757600080fd5b5061058c600480360381019080803573ffffffffffffffffffffffffffffffffffffffff1690602001909291905050506109e8565b005b34801561059a57600080fd5b506105b9600480360381019080803590602001909291905050506109eb565b005b50565b50565b6105c96109f4565b60a0604051908101604052808681526020018581526020018481526020018381526020013373ffffffffffffffffffffffffffffffffffffffff168152509050600181908060018154018082558091505090600182039060005260206000209060050201600090919290919091506000820151816000019080519060200190610653929190610a3a565b506020820151816001019080519060200190610670929190610a3a565b50604082015181600201556060820151816003015560808201518160040160006101000a81548173ffffffffffffffffffffffffffffffffffffffff021916908373ffffffffffffffffffffffffffffffffffffffff1602179055505050505050505050565b50565b6003806000018054600181600116156101000203166002900480601f0160208091040260200160405190810160405280929190818152602001828054600181600116156101000203166002900480156107735780601f1061074857610100808354040283529160200191610773565b820191906000526020600020905b81548152906001019060200180831161075657829003601f168201915b505050505090806001018054600181600116156101000203166002900480601f0160208091040260200160405190810160405280929190818152602001828054600181600116156101000203166002900480156108115780601f106107e657610100808354040283529160200191610811565b820191906000526020600020905b8154815290600101906020018083116107f457829003601f168201915b5050505050908060020154908060030154908060040160009054906101000a900473ffffffffffffffffffffffffffffffffffffffff16905085565b60018181548110151561085c57fe5b9060005260206000209060050201600091509050806000018054600181600116156101000203166002900480601f0160208091040260200160405190810160405280929190818152602001828054600181600116156101000203166002900480156109085780601f106108dd57610100808354040283529160200191610908565b820191906000526020600020905b8154815290600101906020018083116108eb57829003601f168201915b505050505090806001018054600181600116156101000203166002900480601f0160208091040260200160405190810160405280929190818152602001828054600181600116156101000203166002900480156109a65780601f1061097b576101008083540402835291602001916109a6565b820191906000526020600020905b81548152906001019060200180831161098957829003601f168201915b5050505050908060020154908060030154908060040160009054906101000a900473ffffffffffffffffffffffffffffffffffffffff16905085565b50565b50565b50565b60008190505050565b60a06040519081016040528060608152602001606081526020016000815260200160008152602001600073ffffffffffffffffffffffffffffffffffffffff1681525090565b828054600181600116156101000203166002900490600052602060002090601f016020900481019282601f10610a7b57805160ff1916838001178555610aa9565b82800160010185558215610aa9579182015b82811115610aa8578251825591602001919060010190610a8d565b5b509050610ab69190610aba565b5090565b610adc91905b80821115610ad8576000816000905550600101610ac0565b5090565b905600a165627a7a72305820718e9223448be641b0af8762da3db4bd7a50fa0cacaab23ba9d1fe004ecd561b0029",
  "source": "pragma solidity ^0.4.2;\n\ncontract lendingRequests{\n\n\n\t// Data Structures for storage\n\tstruct Person{\n\t\tstring name;\n\t\tstring addres;\n\t\tuint256 aadhar;\n\t\tuint pan;\n\t\taddress Blockaddr;\n\t}\n\t// Unique TransactionId\n\t// Transaction History\n\n\n\n\tstruct transactionId{\n\t\tuint amount;\n\t\tuint tid;\n\t\tbool cleared;\n\t\tuint duration;\n\t\tuint amountRemaining;\n\t\tbool defaultStatus;\n\t}\n\n\tmapping(address => transactionId[]) TransactionHistory;\n\tPerson[] public registeredParticipants;\n\n\tstruct verificationStatus{\n\t\tbool GovernmentAgencyCheck;\n\t\tbool CreditRating;\n\t\tbool GrantStatus;\n\t}\n\n\n\tmapping(address => verificationStatus) Status;\n\n\n\tPerson public p;\n\tfunction lendingRequests() public{\n\n\t}\n\n\tfunction addLender(string name ,string addres,uint aadhar,uint pan) public {\n\t\tPerson memory p = Person({\n\t\t\tname : name,\n\t\t\taddres : addres,\n\t\t\taadhar : aadhar,\n\t\t\tpan : pan,\n\t\t\tBlockaddr : msg.sender\n\t\t\t});\n\t\tregisteredParticipants.push(p);\n\t}\n\n\tfunction DetailsLenderGovt (uint name) public{\n\t\tuint n = name;\n\t}\n\n\tfunction DetailsLenderCredit (address adr) public{\n\n\t} \n\n\tfunction DetailstoBank (address adr)public{\n\n\t}\n\n\tfunction GrantStatusforBank (address adr)public{\n\n\t}\n\n\tfunction CreditRate (address adr) public{\n\n\t}\n\n\tfunction ValidGovtId (address adr) public{\n\n\t}\n\n\tfunction GrantStatusCheck (address adr) public{\n\t\t\n\n\t}\n\t\n}",
  "sourcePath": "/run/media/shivam/48D3B0E240114716/development/Rubique/LendingmadeEasy/contracts/lendingRequests.sol",
  "compiler": {
    "name": "solc",
    "version": "0.4.24+commit.e67f0147.Emscripten.clang"
  },
  "schemaVersion": "2.0.1",
  "updatedAt": "2018-10-25T11:37:44.147Z"
}