{
  "contractName": "lendingRequest",
  "abi": [
    {
      "constant": true,
      "inputs": [],
      "name": "p",
      "outputs": [
        {
          "name": "name",
          "type": "string"
        },
        {
          "name": "addres",
          "type": "string"
        },
        {
          "name": "aadhar",
          "type": "uint256"
        },
        {
          "name": "pan",
          "type": "uint256"
        },
        {
          "name": "Blockaddr",
          "type": "address"
        }
      ],
      "payable": false,
      "stateMutability": "view",
      "type": "function"
    },
    {
      "constant": true,
      "inputs": [
        {
          "name": "",
          "type": "uint256"
        }
      ],
      "name": "registeredParticipants",
      "outputs": [
        {
          "name": "name",
          "type": "string"
        },
        {
          "name": "addres",
          "type": "string"
        },
        {
          "name": "aadhar",
          "type": "uint256"
        },
        {
          "name": "pan",
          "type": "uint256"
        },
        {
          "name": "Blockaddr",
          "type": "address"
        }
      ],
      "payable": false,
      "stateMutability": "view",
      "type": "function"
    },
    {
      "inputs": [],
      "payable": false,
      "stateMutability": "nonpayable",
      "type": "constructor"
    },
    {
      "constant": false,
      "inputs": [
        {
          "name": "name",
          "type": "string"
        }
      ],
      "name": "addLender",
      "outputs": [],
      "payable": false,
      "stateMutability": "nonpayable",
      "type": "function"
    },
    {
      "constant": false,
      "inputs": [
        {
          "name": "adr",
          "type": "address"
        }
      ],
      "name": "lendersList",
      "outputs": [],
      "payable": false,
      "stateMutability": "nonpayable",
      "type": "function"
    },
    {
      "constant": false,
      "inputs": [
        {
          "name": "adr",
          "type": "address"
        }
      ],
      "name": "DetailsLenderGovt",
      "outputs": [],
      "payable": false,
      "stateMutability": "nonpayable",
      "type": "function"
    },
    {
      "constant": false,
      "inputs": [
        {
          "name": "adr",
          "type": "address"
        }
      ],
      "name": "DetailsLenderCredit",
      "outputs": [],
      "payable": false,
      "stateMutability": "nonpayable",
      "type": "function"
    },
    {
      "constant": false,
      "inputs": [
        {
          "name": "adr",
          "type": "address"
        }
      ],
      "name": "DetailstoBank",
      "outputs": [],
      "payable": false,
      "stateMutability": "nonpayable",
      "type": "function"
    },
    {
      "constant": false,
      "inputs": [
        {
          "name": "adr",
          "type": "address"
        }
      ],
      "name": "GrantStatusforBank",
      "outputs": [],
      "payable": false,
      "stateMutability": "nonpayable",
      "type": "function"
    },
    {
      "constant": false,
      "inputs": [
        {
          "name": "adr",
          "type": "address"
        }
      ],
      "name": "CreditRate",
      "outputs": [],
      "payable": false,
      "stateMutability": "nonpayable",
      "type": "function"
    },
    {
      "constant": false,
      "inputs": [
        {
          "name": "adr",
          "type": "address"
        }
      ],
      "name": "ValidGovtId",
      "outputs": [],
      "payable": false,
      "stateMutability": "nonpayable",
      "type": "function"
    },
    {
      "constant": false,
      "inputs": [
        {
          "name": "adr",
          "type": "address"
        }
      ],
      "name": "GrantStatusCheck",
      "outputs": [],
      "payable": false,
      "stateMutability": "nonpayable",
      "type": "function"
    }
  ],
  "bytecode": "0x608060405234801561001057600080fd5b50610915806100206000396000f3006080604052600436106100af576000357c0100000000000000000000000000000000000000000000000000000000900463ffffffff1680631410b15f146100b4578063214e08da146100f75780634d5b67ab1461013a5780637c3d50581461017d5780638b0f044c146101c05780639ae8886a14610229578063acdacd2614610366578063bf9fb179146103a9578063ce917b6f146104fc578063cf2326291461053f578063d6d56e5514610582575b600080fd5b3480156100c057600080fd5b506100f5600480360381019080803573ffffffffffffffffffffffffffffffffffffffff1690602001909291905050506105c5565b005b34801561010357600080fd5b50610138600480360381019080803573ffffffffffffffffffffffffffffffffffffffff1690602001909291905050506105c8565b005b34801561014657600080fd5b5061017b600480360381019080803573ffffffffffffffffffffffffffffffffffffffff1690602001909291905050506105cb565b005b34801561018957600080fd5b506101be600480360381019080803573ffffffffffffffffffffffffffffffffffffffff1690602001909291905050506105ce565b005b3480156101cc57600080fd5b50610227600480360381019080803590602001908201803590602001908080601f01602080910402602001604051908101604052809392919081815260200183838082843782019150505050505091929192905050506105d1565b005b34801561023557600080fd5b5061023e6105d4565b6040518080602001806020018681526020018581526020018473ffffffffffffffffffffffffffffffffffffffff1673ffffffffffffffffffffffffffffffffffffffff168152602001838103835288818151815260200191508051906020019080838360005b838110156102c05780820151818401526020810190506102a5565b50505050905090810190601f1680156102ed5780820380516001836020036101000a031916815260200191505b50838103825287818151815260200191508051906020019080838360005b8381101561032657808201518184015260208101905061030b565b50505050905090810190601f1680156103535780820380516001836020036101000a031916815260200191505b5097505050505050505060405180910390f35b34801561037257600080fd5b506103a7600480360381019080803573ffffffffffffffffffffffffffffffffffffffff169060200190929190505050610748565b005b3480156103b557600080fd5b506103d46004803603810190808035906020019092919050505061074b565b6040518080602001806020018681526020018581526020018473ffffffffffffffffffffffffffffffffffffffff1673ffffffffffffffffffffffffffffffffffffffff168152602001838103835288818151815260200191508051906020019080838360005b8381101561045657808201518184015260208101905061043b565b50505050905090810190601f1680156104835780820380516001836020036101000a031916815260200191505b50838103825287818151815260200191508051906020019080838360005b838110156104bc5780820151818401526020810190506104a1565b50505050905090810190601f1680156104e95780820380516001836020036101000a031916815260200191505b5097505050505050505060405180910390f35b34801561050857600080fd5b5061053d600480360381019080803573ffffffffffffffffffffffffffffffffffffffff1690602001909291905050506108e0565b005b34801561054b57600080fd5b50610580600480360381019080803573ffffffffffffffffffffffffffffffffffffffff1690602001909291905050506108e3565b005b34801561058e57600080fd5b506105c3600480360381019080803573ffffffffffffffffffffffffffffffffffffffff1690602001909291905050506108e6565b005b50565b50565b50565b50565b50565b6003806000018054600181600116156101000203166002900480601f01602080910402602001604051908101604052809291908181526020018280546001816001161561010002031660029004801561066e5780601f106106435761010080835404028352916020019161066e565b820191906000526020600020905b81548152906001019060200180831161065157829003601f168201915b505050505090806001018054600181600116156101000203166002900480601f01602080910402602001604051908101604052809291908181526020018280546001816001161561010002031660029004801561070c5780601f106106e15761010080835404028352916020019161070c565b820191906000526020600020905b8154815290600101906020018083116106ef57829003601f168201915b5050505050908060020154908060030154908060040160009054906101000a900473ffffffffffffffffffffffffffffffffffffffff16905085565b50565b60018181548110151561075a57fe5b9060005260206000209060050201600091509050806000018054600181600116156101000203166002900480601f0160208091040260200160405190810160405280929190818152602001828054600181600116156101000203166002900480156108065780601f106107db57610100808354040283529160200191610806565b820191906000526020600020905b8154815290600101906020018083116107e957829003601f168201915b505050505090806001018054600181600116156101000203166002900480601f0160208091040260200160405190810160405280929190818152602001828054600181600116156101000203166002900480156108a45780601f10610879576101008083540402835291602001916108a4565b820191906000526020600020905b81548152906001019060200180831161088757829003601f168201915b5050505050908060020154908060030154908060040160009054906101000a900473ffffffffffffffffffffffffffffffffffffffff16905085565b50565b50565b505600a165627a7a72305820a275dd6c7682d6c7ada1e3936d7828633dd9f75e88aafa2f1f3930395e78c1320029",
  "source": "pragma solidity ^0.4.2;\n\ncontract lendingRequest{\n\n\n\t// Data Structures for storage\n\tstruct Person{\n\t\tstring name;\n\t\tstring addres;\n\t\tuint256 aadhar;\n\t\tuint pan;\n\t\taddress Blockaddr;\n\t}\n\t// Unique TransactionId\n\t// Transaction History\n\n\tstruct transactionId{\n\t\tuint amount;\n\t\tuint tid;\n\t\tbool cleared;\n\t\tuint duration;\n\t\tuint amountRemaining;\n\t\tbool defaultStatus;\n\t}\n\n\tmapping(address => transactionId[]) TransactionHistory;\n\tPerson[] public registeredParticipants;\n\n\tstruct verificationStatus{\n\t\tbool GovernmentAgencyCheck;\n\t\tbool CreditRating;\n\t\tbool GrantStatus;\n\t}\n\n\n\tmapping(address => verificationStatus) Status;\n\n\n\tPerson public p;\n\tfunction lendingRequest() public{\n\t}\n\n\tfunction addLender(string name ) public{\n\n\t}\n\n\tfunction lendersList (address adr) public{\n\n\t}\n\n\tfunction DetailsLenderGovt (address adr) public{\n\n\t}\n\n\tfunction DetailsLenderCredit (address adr) public{\n\n\t} \n\n\tfunction DetailstoBank (address adr)public{\n\n\t}\n\n\tfunction GrantStatusforBank (address adr)public{\n\n\t}\n\n\tfunction CreditRate (address adr) public{\n\n\t}\n\n\tfunction ValidGovtId (address adr) public{\n\n\t}\n\n\tfunction GrantStatusCheck (address adr) public{\n\t\t\n\n\t}\n\t\n}",
  "sourcePath": "/run/media/shivam/48D3B0E240114716/development/Rubique/election_react/contracts/lendingRequests.sol",
  "compiler": {
    "name": "solc",
    "version": "0.4.24+commit.e67f0147.Emscripten.clang"
  },
  "schemaVersion": "2.0.1",
  "updatedAt": "2018-10-24T14:20:36.949Z"
}